{"contractName":"CareBlock","abi":[{"constant":true,"inputs":[{"name":"","type":"address"}],"name":"patients","outputs":[{"name":"id","type":"uint256"},{"name":"IPFSCareBlock","type":"string"},{"name":"verified","type":"bool"}],"payable":false,"stateMutability":"view","type":"function"},{"constant":true,"inputs":[],"name":"patientCount","outputs":[{"name":"","type":"uint256"}],"payable":false,"stateMutability":"view","type":"function"},{"inputs":[],"payable":false,"stateMutability":"nonpayable","type":"constructor"},{"constant":false,"inputs":[{"name":"_patientAddress","type":"address"},{"name":"_ipfsAddress","type":"string"}],"name":"addPatient","outputs":[],"payable":false,"stateMutability":"nonpayable","type":"function"},{"constant":false,"inputs":[{"name":"_patientAddress","type":"address"},{"name":"_ipfsAddress","type":"string"}],"name":"updatePatientIPFS","outputs":[],"payable":false,"stateMutability":"nonpayable","type":"function"},{"constant":false,"inputs":[{"name":"_patientAddress","type":"address"},{"name":"isVerified","type":"bool"}],"name":"verifyPatient","outputs":[],"payable":false,"stateMutability":"nonpayable","type":"function"}],"bytecode":"0x60806040526000805534801561001457600080fd5b5061009e73ad663308b4c65c23bb01c08a002331d1d8878c71606060405190810160405280602e81526020017f516d5a74646571656859484d366168537367524a6453376b4d5231464d42755581526020017f394479757039436e5366454333550000000000000000000000000000000000008152506100a3640100000000026401000000009004565b6101b6565b600080546001908101808355604080516060810182529182526020808301868152838301869052600160a060020a0388168652848252919094208251815590518051929491936100fb9390850192919091019061011b565b50604091909101516002909101805460ff19169115159190911790555050565b828054600181600116156101000203166002900490600052602060002090601f016020900481019282601f1061015c57805160ff1916838001178555610189565b82800160010185558215610189579182015b8281111561018957825182559160200191906001019061016e565b50610195929150610199565b5090565b6101b391905b80821115610195576000815560010161019f565b90565b61056e806101c56000396000f3fe60806040526004361061006c5763ffffffff7c01000000000000000000000000000000000000000000000000000000006000350416630869cfbc81146100715780630e20d59d1461012e5780638407706e1461016b578063a0303c411461022e578063db66c06014610255575b600080fd5b34801561007d57600080fd5b506100a46004803603602081101561009457600080fd5b5035600160a060020a0316610318565b604051808481526020018060200183151515158152602001828103825284818151815260200191508051906020019080838360005b838110156100f15781810151838201526020016100d9565b50505050905090810190601f16801561011e5780820380516001836020036101000a031916815260200191505b5094505050505060405180910390f35b34801561013a57600080fd5b506101696004803603604081101561015157600080fd5b50600160a060020a03813516906020013515156103c7565b005b34801561017757600080fd5b506101696004803603604081101561018e57600080fd5b600160a060020a0382351691908101906040810160208201356401000000008111156101b957600080fd5b8201836020820111156101cb57600080fd5b803590602001918460018302840111640100000000831117156101ed57600080fd5b91908080601f0160208091040260200160405190810160405280939291908181526020018383808284376000920191909152509295506103f5945050505050565b34801561023a57600080fd5b50610243610429565b60408051918252519081900360200190f35b34801561026157600080fd5b506101696004803603604081101561027857600080fd5b600160a060020a0382351691908101906040810160208201356401000000008111156102a357600080fd5b8201836020820111156102b557600080fd5b803590602001918460018302840111640100000000831117156102d757600080fd5b91908080601f01602080910402602001604051908101604052809392919081815260200183838082843760009201919091525092955061042f945050505050565b600160208181526000928352604092839020805481840180548651600296821615610100026000190190911695909504601f810185900485028601850190965285855290949193929091908301828280156103b45780601f10610389576101008083540402835291602001916103b4565b820191906000526020600020905b81548152906001019060200180831161039757829003601f168201915b5050506002909301549192505060ff1683565b600160a060020a03919091166000908152600160205260409020600201805460ff1916911515919091179055565b600160a060020a03821660009081526001602081815260409092208351610424939190920191908401906104a7565b505050565b60005481565b600080546001908101808355604080516060810182529182526020808301868152838301869052600160a060020a038816865284825291909420825181559051805192949193610487939085019291909101906104a7565b50604091909101516002909101805460ff19169115159190911790555050565b828054600181600116156101000203166002900490600052602060002090601f016020900481019282601f106104e857805160ff1916838001178555610515565b82800160010185558215610515579182015b828111156105155782518255916020019190600101906104fa565b50610521929150610525565b5090565b61053f91905b80821115610521576000815560010161052b565b9056fea165627a7a7230582024c31c962ada2b03d07efe53f9093c346082898d87746d5ee3b5140dbc2f4ca70029","source":"pragma solidity ^0.5.0;\n\ncontract CareBlock {\n\tuint public patientCount = 0;\n\n\tstruct Patient {\n\t\tuint id;\n\t\tstring IPFSCareBlock; // address of patient.json file which contains references to all their data\n\t\tbool verified;\n\t}\n\n\tmapping(address => Patient) public patients;\n\n\tconstructor () public {\n\t\t// this is just used for testing\n\t\taddPatient(\n\t\t\t0xAd663308B4c65C23bb01C08a002331D1d8878C71,\n\t\t\t'QmZtdeqehYHM6ahSsgRJdS7kMR1FMBuU9Dyup9CnSfEC3U'\n\t\t);\n\t}\n\n\tfunction addPatient(address _patientAddress, string memory _ipfsAddress) public {\n\t\tpatientCount++;\n\t\tpatients[_patientAddress] = Patient(patientCount, _ipfsAddress, false);\n\t\t// emit event if needed\n\t}\n\n\tfunction updatePatientIPFS(address _patientAddress, string memory _ipfsAddress) public {\n\t\t// Update patient's hash on IPFS\n\t\tpatients[_patientAddress].IPFSCareBlock = _ipfsAddress;\n\t}\n\n\tfunction verifyPatient(address _patientAddress, bool isVerified) public {\n\t\t// Update patient verification status\n\t\tpatients[_patientAddress].verified = isVerified;\n\t}\n}","sourcePath":"/run/media/captainmoha/dev/dproject/back/src/app/truffle/contracts/CareBlock.sol","compiler":{"name":"solc","version":"0.5.0+commit.1d4f565a.Emscripten.clang"},"schemaVersion":"3.0.1","updatedAt":"2019-07-13T13:21:35.642Z","devdoc":{"methods":{}},"userdoc":{"methods":{}},"contractAddress":"0x545F3565cBbbd247F3067D658B550A0CB42303D0"}