{"contractName":"CareBlock","abi":[{"constant":true,"inputs":[{"name":"","type":"address"}],"name":"patients","outputs":[{"name":"id","type":"uint256"},{"name":"name","type":"string"},{"name":"IPFSCareBlock","type":"string"},{"name":"verified","type":"bool"}],"payable":false,"stateMutability":"view","type":"function"},{"constant":true,"inputs":[],"name":"patientCount","outputs":[{"name":"","type":"uint256"}],"payable":false,"stateMutability":"view","type":"function"},{"inputs":[],"payable":false,"stateMutability":"nonpayable","type":"constructor"},{"constant":false,"inputs":[{"name":"_patientAddress","type":"address"},{"name":"name","type":"string"},{"name":"_ipfsAddress","type":"string"}],"name":"addPatient","outputs":[],"payable":false,"stateMutability":"nonpayable","type":"function"},{"constant":false,"inputs":[{"name":"_patientAddress","type":"address"},{"name":"_ipfsAddress","type":"string"}],"name":"updatePatientIPFS","outputs":[],"payable":false,"stateMutability":"nonpayable","type":"function"},{"constant":false,"inputs":[{"name":"_patientAddress","type":"address"},{"name":"isVerified","type":"bool"}],"name":"verifyPatient","outputs":[],"payable":false,"stateMutability":"nonpayable","type":"function"}],"bytecode":"0x60806040526000805534801561001457600080fd5b506100d473ad663308b4c65c23bb01c08a002331d1d8878c716040805190810160405280600d81526020017f4a616d657320542e204b69726b00000000000000000000000000000000000000815250606060405190810160405280602e81526020017f516d5a74646571656859484d366168537367524a6453376b4d5231464d42755581526020017f394479757039436e5366454333550000000000000000000000000000000000008152506100d9640100000000026401000000009004565b610210565b60008054600190810180835560408051608081018252918252602080830187815283830187905260608401869052600160a060020a03891686528482529190942082518155905180519294919361013893908501929190910190610175565b5060408201518051610154916002840191602090910190610175565b50606091909101516003909101805460ff1916911515919091179055505050565b828054600181600116156101000203166002900490600052602060002090601f016020900481019282601f106101b657805160ff19168380011785556101e3565b828001600101855582156101e3579182015b828111156101e35782518255916020019190600101906101c8565b506101ef9291506101f3565b5090565b61020d91905b808211156101ef57600081556001016101f9565b90565b6107118061021f6000396000f3fe60806040526004361061006c5763ffffffff7c01000000000000000000000000000000000000000000000000000000006000350416630869cfbc81146100715780630e20d59d1461019457806337b16b50146101d15780638407706e1461031b578063a0303c41146103de575b600080fd5b34801561007d57600080fd5b506100a46004803603602081101561009457600080fd5b5035600160a060020a0316610405565b60405180858152602001806020018060200184151515158152602001838103835286818151815260200191508051906020019080838360005b838110156100f55781810151838201526020016100dd565b50505050905090810190601f1680156101225780820380516001836020036101000a031916815260200191505b50838103825285518152855160209182019187019080838360005b8381101561015557818101518382015260200161013d565b50505050905090810190601f1680156101825780820380516001836020036101000a031916815260200191505b50965050505050505060405180910390f35b3480156101a057600080fd5b506101cf600480360360408110156101b757600080fd5b50600160a060020a0381351690602001351515610546565b005b3480156101dd57600080fd5b506101cf600480360360608110156101f457600080fd5b600160a060020a03823516919081019060408101602082013564010000000081111561021f57600080fd5b82018360208201111561023157600080fd5b8035906020019184600183028401116401000000008311171561025357600080fd5b91908080601f01602080910402602001604051908101604052809392919081815260200183838082843760009201919091525092959493602081019350359150506401000000008111156102a657600080fd5b8201836020820111156102b857600080fd5b803590602001918460018302840111640100000000831117156102da57600080fd5b91908080601f016020809104026020016040519081016040528093929190818152602001838380828437600092019190915250929550610574945050505050565b34801561032757600080fd5b506101cf6004803603604081101561033e57600080fd5b600160a060020a03823516919081019060408101602082013564010000000081111561036957600080fd5b82018360208201111561037b57600080fd5b8035906020019184600183028401116401000000008311171561039d57600080fd5b91908080601f016020809104026020016040519081016040528093929190818152602001838380828437600092019190915250929550610610945050505050565b3480156103ea57600080fd5b506103f3610644565b60408051918252519081900360200190f35b600160208181526000928352604092839020805481840180548651600296821615610100026000190190911695909504601f810185900485028601850190965285855290949193929091908301828280156104a15780601f10610476576101008083540402835291602001916104a1565b820191906000526020600020905b81548152906001019060200180831161048457829003601f168201915b50505060028085018054604080516020601f60001961010060018716150201909416959095049283018590048502810185019091528181529596959450909250908301828280156105335780601f1061050857610100808354040283529160200191610533565b820191906000526020600020905b81548152906001019060200180831161051657829003601f168201915b5050506003909301549192505060ff1684565b600160a060020a03919091166000908152600160205260409020600301805460ff1916911515919091179055565b60008054600190810180835560408051608081018252918252602080830187815283830187905260608401869052600160a060020a0389168652848252919094208251815590518051929491936105d39390850192919091019061064a565b50604082015180516105ef91600284019160209091019061064a565b50606091909101516003909101805460ff1916911515919091179055505050565b600160a060020a0382166000908152600160209081526040909120825161063f9260029092019184019061064a565b505050565b60005481565b828054600181600116156101000203166002900490600052602060002090601f016020900481019282601f1061068b57805160ff19168380011785556106b8565b828001600101855582156106b8579182015b828111156106b857825182559160200191906001019061069d565b506106c49291506106c8565b5090565b6106e291905b808211156106c457600081556001016106ce565b9056fea165627a7a7230582033edd137ec1abc66c7c148657d386d4c92e86f5365ddefba1774e5df3b9defe30029","source":"pragma solidity ^0.5.0;\n\ncontract CareBlock {\n\tuint public patientCount = 0;\n\n\tstruct Patient {\n\t\tuint id;\n\t\tstring name;\n\t\tstring IPFSCareBlock;\n\t\tbool verified;\n\t}\n\n\tmapping(address => Patient) public patients;\n\n\tconstructor () public {\n\t\taddPatient(\n\t\t\t0xAd663308B4c65C23bb01C08a002331D1d8878C71,\n\t\t\t\"James T. Kirk\",\n\t\t\t'QmZtdeqehYHM6ahSsgRJdS7kMR1FMBuU9Dyup9CnSfEC3U'\n\t\t);\n\t}\n\n\tfunction addPatient(address _patientAddress, string memory name, string memory _ipfsAddress) public {\n\t\tpatientCount++;\n\t\tpatients[_patientAddress] = Patient(patientCount, name, _ipfsAddress, false);\n\t\t// emit event if needed\n\t}\n\n\tfunction updatePatientIPFS(address _patientAddress, string memory _ipfsAddress) public {\n\t\t// Update patient's hash on IPFS\n\t\tpatients[_patientAddress].IPFSCareBlock = _ipfsAddress;\n\t}\n\n\tfunction verifyPatient(address _patientAddress, bool isVerified) public {\n\t\t// Update patient verification status\n\t\tpatients[_patientAddress].verified = isVerified;\n\t}\n}","sourcePath":"/run/media/captainmoha/dev/dproject/back/src/app/truffle/contracts/CareBlock.sol","compiler":{"name":"solc","version":"0.5.0+commit.1d4f565a.Emscripten.clang"},"schemaVersion":"3.0.1","updatedAt":"2019-07-07T20:25:21.417Z","devdoc":{"methods":{}},"userdoc":{"methods":{}},"contractAddress":"0x09cd894d1Fb5a6563FB3b3fa1247cB61D911596B"}