{"contractName":"CareBlock","abi":[{"constant":true,"inputs":[{"name":"","type":"address"}],"name":"patients","outputs":[{"name":"id","type":"uint256"},{"name":"IPFSCareBlock","type":"string"},{"name":"verified","type":"bool"},{"name":"orgId","type":"string"}],"payable":false,"stateMutability":"view","type":"function"},{"constant":true,"inputs":[],"name":"patientCount","outputs":[{"name":"","type":"uint256"}],"payable":false,"stateMutability":"view","type":"function"},{"inputs":[],"payable":false,"stateMutability":"nonpayable","type":"constructor"},{"constant":false,"inputs":[{"name":"_patientAddress","type":"address"},{"name":"_ipfsAddress","type":"string"}],"name":"addPatient","outputs":[],"payable":false,"stateMutability":"nonpayable","type":"function"},{"constant":false,"inputs":[{"name":"_patientAddress","type":"address"},{"name":"_ipfsAddress","type":"string"}],"name":"updatePatientIPFS","outputs":[],"payable":false,"stateMutability":"nonpayable","type":"function"},{"constant":false,"inputs":[{"name":"_patientAddress","type":"address"},{"name":"isVerified","type":"bool"},{"name":"_orgId","type":"string"}],"name":"verifyPatient","outputs":[],"payable":false,"stateMutability":"nonpayable","type":"function"}],"bytecode":"0x60806040526000805534801561001457600080fd5b5061009e73ad663308b4c65c23bb01c08a002331d1d8878c71606060405190810160405280602e81526020017f516d5a74646571656859484d366168537367524a6453376b4d5231464d42755581526020017f394479757039436e5366454333550000000000000000000000000000000000008152506100a3640100000000026401000000009004565b6101e0565b600080546001908101808355604080516080810182529182526020808301868152838301869052825180830184528681526060850152600160a060020a03881686528482529190942082518155905180519294919361010a93908501929190910190610145565b50604082015160028201805460ff19169115159190911790556060820151805161013e916003840191602090910190610145565b5050505050565b828054600181600116156101000203166002900490600052602060002090601f016020900481019282601f1061018657805160ff19168380011785556101b3565b828001600101855582156101b3579182015b828111156101b3578251825591602001919060010190610198565b506101bf9291506101c3565b5090565b6101dd91905b808211156101bf57600081556001016101c9565b90565b610737806101ef6000396000f3fe60806040526004361061006c5763ffffffff7c01000000000000000000000000000000000000000000000000000000006000350416630869cfbc81146100715780638407706e14610194578063a0303c4114610259578063ab1e9d0d14610280578063db66c0601461034a575b600080fd5b34801561007d57600080fd5b506100a46004803603602081101561009457600080fd5b5035600160a060020a031661040d565b60405180858152602001806020018415151515815260200180602001838103835286818151815260200191508051906020019080838360005b838110156100f55781810151838201526020016100dd565b50505050905090810190601f1680156101225780820380516001836020036101000a031916815260200191505b50838103825284518152845160209182019186019080838360005b8381101561015557818101518382015260200161013d565b50505050905090810190601f1680156101825780820380516001836020036101000a031916815260200191505b50965050505050505060405180910390f35b3480156101a057600080fd5b50610257600480360360408110156101b757600080fd5b600160a060020a0382351691908101906040810160208201356401000000008111156101e257600080fd5b8201836020820111156101f457600080fd5b8035906020019184600183028401116401000000008311171561021657600080fd5b91908080601f01602080910402602001604051908101604052809392919081815260200183838082843760009201919091525092955061054f945050505050565b005b34801561026557600080fd5b5061026e610583565b60408051918252519081900360200190f35b34801561028c57600080fd5b50610257600480360360608110156102a357600080fd5b600160a060020a038235169160208101351515918101906060810160408201356401000000008111156102d557600080fd5b8201836020820111156102e757600080fd5b8035906020019184600183028401116401000000008311171561030957600080fd5b91908080601f016020809104026020016040519081016040528093929190818152602001838380828437600092019190915250929550610589945050505050565b34801561035657600080fd5b506102576004803603604081101561036d57600080fd5b600160a060020a03823516919081019060408101602082013564010000000081111561039857600080fd5b8201836020820111156103aa57600080fd5b803590602001918460018302840111640100000000831117156103cc57600080fd5b91908080601f0160208091040260200160405190810160405280939291908181526020018383808284376000920191909152509295506105ce945050505050565b600160208181526000928352604092839020805481840180548651600296821615610100026000190190911695909504601f810185900485028601850190965285855290949193929091908301828280156104a95780601f1061047e576101008083540402835291602001916104a9565b820191906000526020600020905b81548152906001019060200180831161048c57829003601f168201915b505050506002838101546003850180546040805160206101006001851615026000190190931695909504601f8101839004830286018301909152808552959660ff909316959294509091908301828280156105455780601f1061051a57610100808354040283529160200191610545565b820191906000526020600020905b81548152906001019060200180831161052857829003601f168201915b5050505050905084565b600160a060020a0382166000908152600160208181526040909220835161057e93919092019190840190610670565b505050565b60005481565b600160a060020a038316600090815260016020908152604090912060028101805460ff191685151517905582516105c892600390920191840190610670565b50505050565b600080546001908101808355604080516080810182529182526020808301868152838301869052825180830184528681526060850152600160a060020a03881686528482529190942082518155905180519294919361063593908501929190910190610670565b50604082015160028201805460ff191691151591909117905560608201518051610669916003840191602090910190610670565b5050505050565b828054600181600116156101000203166002900490600052602060002090601f016020900481019282601f106106b157805160ff19168380011785556106de565b828001600101855582156106de579182015b828111156106de5782518255916020019190600101906106c3565b506106ea9291506106ee565b5090565b61070891905b808211156106ea57600081556001016106f4565b9056fea165627a7a723058200408a9edf9e0affb75f2af4eba9bcdab0470f51f2c64093ac46c92c6c7515c200029","source":"pragma solidity ^0.5.0;\n\ncontract CareBlock {\n\tuint public patientCount = 0;\n\n\tstruct Patient {\n\t\tuint id;\n\t\tstring IPFSCareBlock; // address of patient.json file which contains references to all their data\n\t\tbool verified;\n\t\tstring orgId;\t// organization user is tied to\n\t}\n\n\tmapping(address => Patient) public patients;\n\n\tconstructor () public {\n\t\t// this is just used for testing\n\t\taddPatient(\n\t\t\t0xAd663308B4c65C23bb01C08a002331D1d8878C71,\n\t\t\t'QmZtdeqehYHM6ahSsgRJdS7kMR1FMBuU9Dyup9CnSfEC3U'\n\t\t);\n\t}\n\n\tfunction addPatient(address _patientAddress, string memory _ipfsAddress) public {\n\t\tpatientCount++;\n\t\tpatients[_patientAddress] = Patient(patientCount, _ipfsAddress, false, '');\n\t\t// emit event if needed\n\t}\n\n\tfunction updatePatientIPFS(address _patientAddress, string memory _ipfsAddress) public {\n\t\t// Update patient's hash on IPFS\n\t\tpatients[_patientAddress].IPFSCareBlock = _ipfsAddress;\n\t}\n\n\tfunction verifyPatient(address _patientAddress, bool isVerified, string memory _orgId) public {\n\t\t// Update patient verification status\n\t\tpatients[_patientAddress].verified = isVerified;\n\t\tpatients[_patientAddress].orgId = _orgId;\n\t}\n}","sourcePath":"/run/media/captainmoha/dev/dproject/back/src/app/truffle/contracts/CareBlock.sol","compiler":{"name":"solc","version":"0.5.0+commit.1d4f565a.Emscripten.clang"},"schemaVersion":"3.0.1","updatedAt":"2019-07-14T14:17:24.816Z","devdoc":{"methods":{}},"userdoc":{"methods":{}},"contractAddress":"0x80899DD1698201fe3887530a153d5Ef9D083a4A7"}