{"contractName":"CareBlock","abi":[{"constant":true,"inputs":[{"name":"","type":"address"}],"name":"patients","outputs":[{"name":"id","type":"uint256"},{"name":"name","type":"string"},{"name":"IPFSCareBlock","type":"string"},{"name":"verified","type":"bool"}],"payable":false,"stateMutability":"view","type":"function"},{"constant":true,"inputs":[],"name":"patientCount","outputs":[{"name":"","type":"uint256"}],"payable":false,"stateMutability":"view","type":"function"},{"inputs":[],"payable":false,"stateMutability":"nonpayable","type":"constructor"},{"constant":false,"inputs":[{"name":"_patientAddress","type":"address"},{"name":"name","type":"string"},{"name":"_ipfsAddress","type":"string"}],"name":"addPatient","outputs":[],"payable":false,"stateMutability":"nonpayable","type":"function"}],"bytecode":"0x60806040526000805534801561001457600080fd5b506100d473ad663308b4c65c23bb01c08a002331d1d8878c716040805190810160405280600d81526020017f4a616d657320542e204b69726b00000000000000000000000000000000000000815250606060405190810160405280602e81526020017f516d5a74646571656859484d366168537367524a6453376b4d5231464d42755581526020017f394479757039436e5366454333550000000000000000000000000000000000008152506100d9640100000000026401000000009004565b610210565b60008054600190810180835560408051608081018252918252602080830187815283830187905260608401869052600160a060020a03891686528482529190942082518155905180519294919361013893908501929190910190610175565b5060408201518051610154916002840191602090910190610175565b50606091909101516003909101805460ff1916911515919091179055505050565b828054600181600116156101000203166002900490600052602060002090601f016020900481019282601f106101b657805160ff19168380011785556101e3565b828001600101855582156101e3579182015b828111156101e35782518255916020019190600101906101c8565b506101ef9291506101f3565b5090565b61020d91905b808211156101ef57600081556001016101f9565b90565b6105c28061021f6000396000f3fe6080604052600436106100565763ffffffff7c01000000000000000000000000000000000000000000000000000000006000350416630869cfbc811461005b57806337b16b501461018b578063a0303c41146102e4575b600080fd5b34801561006757600080fd5b5061009b6004803603602081101561007e57600080fd5b503573ffffffffffffffffffffffffffffffffffffffff1661030b565b60405180858152602001806020018060200184151515158152602001838103835286818151815260200191508051906020019080838360005b838110156100ec5781810151838201526020016100d4565b50505050905090810190601f1680156101195780820380516001836020036101000a031916815260200191505b50838103825285518152855160209182019187019080838360005b8381101561014c578181015183820152602001610134565b50505050905090810190601f1680156101795780820380516001836020036101000a031916815260200191505b50965050505050505060405180910390f35b34801561019757600080fd5b506102e2600480360360608110156101ae57600080fd5b73ffffffffffffffffffffffffffffffffffffffff82351691908101906040810160208201356401000000008111156101e657600080fd5b8201836020820111156101f857600080fd5b8035906020019184600183028401116401000000008311171561021a57600080fd5b91908080601f016020809104026020016040519081016040528093929190818152602001838380828437600092019190915250929594936020810193503591505064010000000081111561026d57600080fd5b82018360208201111561027f57600080fd5b803590602001918460018302840111640100000000831117156102a157600080fd5b91908080601f01602080910402602001604051908101604052809392919081815260200183838082843760009201919091525092955061044c945050505050565b005b3480156102f057600080fd5b506102f96104f5565b60408051918252519081900360200190f35b600160208181526000928352604092839020805481840180548651600296821615610100026000190190911695909504601f810185900485028601850190965285855290949193929091908301828280156103a75780601f1061037c576101008083540402835291602001916103a7565b820191906000526020600020905b81548152906001019060200180831161038a57829003601f168201915b50505060028085018054604080516020601f60001961010060018716150201909416959095049283018590048502810185019091528181529596959450909250908301828280156104395780601f1061040e57610100808354040283529160200191610439565b820191906000526020600020905b81548152906001019060200180831161041c57829003601f168201915b5050506003909301549192505060ff1684565b6000805460019081018083556040805160808101825291825260208083018781528383018790526060840186905273ffffffffffffffffffffffffffffffffffffffff89168652848252919094208251815590518051929491936104b8939085019291909101906104fb565b50604082015180516104d49160028401916020909101906104fb565b50606091909101516003909101805460ff1916911515919091179055505050565b60005481565b828054600181600116156101000203166002900490600052602060002090601f016020900481019282601f1061053c57805160ff1916838001178555610569565b82800160010185558215610569579182015b8281111561056957825182559160200191906001019061054e565b50610575929150610579565b5090565b61059391905b80821115610575576000815560010161057f565b9056fea165627a7a72305820b9188a3885eb9a0ea07117f0773de2c66d1baf0fa00af063c902b4d6034859130029","source":"pragma solidity ^0.5.0;\n\ncontract CareBlock {\n\tuint public patientCount = 0;\n\n\tstruct Patient {\n\t\tuint id;\n\t\tstring name;\n\t\tstring IPFSCareBlock;\n\t\tbool verified;\n\t}\n\n\tmapping(address => Patient) public patients;\n\n\tconstructor () public {\n\t\taddPatient(\n\t\t\t0xAd663308B4c65C23bb01C08a002331D1d8878C71,\n\t\t\t\"James T. Kirk\",\n\t\t\t'QmZtdeqehYHM6ahSsgRJdS7kMR1FMBuU9Dyup9CnSfEC3U'\n\t\t);\n\t}\n\n\tfunction addPatient(address _patientAddress, string memory name, string memory _ipfsAddress) public {\n\t\tpatientCount++;\n\t\tpatients[_patientAddress] = Patient(patientCount, name, _ipfsAddress, false);\n\t\t// emit event if needed\n\t}\n}","sourcePath":"/run/media/captainmoha/dev/dproject/back/src/app/truffle/contracts/CareBlock.sol","compiler":{"name":"solc","version":"0.5.0+commit.1d4f565a.Emscripten.clang"},"schemaVersion":"3.0.1","updatedAt":"2019-06-30T09:39:05.712Z","devdoc":{"methods":{}},"userdoc":{"methods":{}},"contractAddress":"0xCaDcE108776128F8915cccaD1A21ff250ae7fA8c"}